{
  "contractName": "CursoWeb3_Exercicio1",
  "abi": [
    {
      "inputs": [],
      "stateMutability": "nonpayable",
      "type": "constructor"
    },
    {
      "inputs": [],
      "name": "count",
      "outputs": [
        {
          "internalType": "uint32",
          "name": "",
          "type": "uint32"
        }
      ],
      "stateMutability": "view",
      "type": "function",
      "constant": true
    },
    {
      "inputs": [
        {
          "internalType": "uint32",
          "name": "",
          "type": "uint32"
        }
      ],
      "name": "customers",
      "outputs": [
        {
          "internalType": "string",
          "name": "name",
          "type": "string"
        },
        {
          "internalType": "uint8",
          "name": "age",
          "type": "uint8"
        }
      ],
      "stateMutability": "view",
      "type": "function",
      "constant": true
    },
    {
      "inputs": [
        {
          "components": [
            {
              "internalType": "string",
              "name": "name",
              "type": "string"
            },
            {
              "internalType": "uint8",
              "name": "age",
              "type": "uint8"
            }
          ],
          "internalType": "struct CursoWeb3_Exercicio1.Customer",
          "name": "customer",
          "type": "tuple"
        }
      ],
      "name": "addCustomer",
      "outputs": [],
      "stateMutability": "nonpayable",
      "type": "function"
    }
  ],
  "bytecode": "0x60a06040526000805463ffffffff1916905534801561001d57600080fd5b503360805260805161063861003c600039600060b901526106386000f3fe608060405234801561001057600080fd5b50600436106100415760003560e01c806306661abd14610046578063cf7a463914610078578063d39e50e11461008d575b600080fd5b60005461005e90640100000000900463ffffffff1681565b60405163ffffffff90911681526020015b60405180910390f35b61008b610086366004610332565b6100ae565b005b6100a061009b366004610403565b6101cc565b60405161006f929190610430565b336001600160a01b037f0000000000000000000000000000000000000000000000000000000000000000161461013b5760405162461bcd60e51b815260206004820152602860248201527f43616c6c6572206973206e6f7420746865206f776e6572206f662074686520636044820152676f6e74726163742160c01b606482015260840160405180910390fd5b6000610145610273565b63ffffffff8116600090815260016020526040902083519192508391819061016d9082610511565b50602091909101516001909101805460ff191660ff90921691909117905560008054640100000000900463ffffffff169060046101a9836105d1565b91906101000a81548163ffffffff021916908363ffffffff160217905550505050565b6001602052600090815260409020805481906101e790610488565b80601f016020809104026020016040519081016040528092919081815260200182805461021390610488565b80156102605780601f1061023557610100808354040283529160200191610260565b820191906000526020600020905b81548152906001019060200180831161024357829003601f168201915b5050506001909301549192505060ff1682565b600080548190819061028a9063ffffffff166105d1565b91906101000a81548163ffffffff021916908363ffffffff1602179055905090565b634e487b7160e01b600052604160045260246000fd5b6040805190810167ffffffffffffffff811182821017156102e5576102e56102ac565b60405290565b604051601f8201601f1916810167ffffffffffffffff81118282101715610314576103146102ac565b604052919050565b803560ff8116811461032d57600080fd5b919050565b6000602080838503121561034557600080fd5b823567ffffffffffffffff8082111561035d57600080fd5b908401906040828703121561037157600080fd5b6103796102c2565b82358281111561038857600080fd5b8301601f8101881361039957600080fd5b8035838111156103ab576103ab6102ac565b6103bd601f8201601f191687016102eb565b935080845288868284010111156103d357600080fd5b80868301878601376000908401860152508181526103f283850161031c565b848201528094505050505092915050565b60006020828403121561041557600080fd5b813563ffffffff8116811461042957600080fd5b9392505050565b604081526000835180604084015260005b8181101561045e5760208187018101516060868401015201610441565b506000606082850101526060601f19601f83011684010191505060ff831660208301529392505050565b600181811c9082168061049c57607f821691505b6020821081036104bc57634e487b7160e01b600052602260045260246000fd5b50919050565b601f82111561050c57600081815260208120601f850160051c810160208610156104e95750805b601f850160051c820191505b81811015610508578281556001016104f5565b5050505b505050565b815167ffffffffffffffff81111561052b5761052b6102ac565b61053f816105398454610488565b846104c2565b602080601f831160018114610574576000841561055c5750858301515b600019600386901b1c1916600185901b178555610508565b600085815260208120601f198616915b828110156105a357888601518255948401946001909101908401610584565b50858210156105c15787850151600019600388901b60f8161c191681555b5050505050600190811b01905550565b600063ffffffff8083168181036105f857634e487b7160e01b600052601160045260246000fd5b600101939250505056fea2646970667358221220ae3fa54de90e1d9403b0bf635be60df74d996db253b02295a7f5bba830ad9b0164736f6c63430008130033",
  "immutableReferences": {
    "3": [
      {
        "length": 32,
        "start": 185
      }
    ]
  },
  "source": "// SPDX-License-Identifier: MIT\r\npragma solidity ^0.8.19;\r\n\r\ncontract CursoWeb3_Exercicio1 {\r\n    address private immutable owner;\r\n    uint32 private nextId = 0;\r\n    uint32 public count;\r\n\r\n    struct Customer {\r\n        string name;\r\n        uint8 age;\r\n    }\r\n\r\n    mapping(uint32 => Customer) public customers;\r\n\r\n    constructor() {\r\n        owner = msg.sender;\r\n    }\r\n\r\n    function getNextId() private returns(uint32) {\r\n        return ++nextId;\r\n    }\r\n\r\n    function addCustomer(Customer memory customer) public {\r\n        require(msg.sender == owner, \"Caller is not the owner of the contract!\");\r\n        uint32 id = getNextId();\r\n        customers[id] = customer;\r\n        count++;\r\n    }\r\n    \r\n}",
  "sourcePath": "c:\\Users\\ayamamura\\Desktop\\Curso BlockChain\\Curso web 3.0\\Exercicios\\contracts\\CursoWeb3_Exercicio1.sol",
  "compiler": {
    "name": "solc",
    "version": "0.8.19+commit.7dd6d404.Emscripten.clang"
  },
  "schemaVersion": "3.4.13",
  "updatedAt": "2023-03-08T15:46:16.659Z",
  "networkType": "ethereum",
  "devdoc": {
    "kind": "dev",
    "methods": {},
    "version": 1
  },
  "userdoc": {
    "kind": "user",
    "methods": {},
    "version": 1
  }
}